{
  "contractName": "Microtransactions",
  "abi": [
    {
      "inputs": [],
      "stateMutability": "nonpayable",
      "type": "constructor"
    },
    {
      "anonymous": false,
      "inputs": [
        {
          "indexed": false,
          "internalType": "address",
          "name": "from",
          "type": "address"
        },
        {
          "indexed": false,
          "internalType": "address",
          "name": "to",
          "type": "address"
        },
        {
          "indexed": false,
          "internalType": "uint256",
          "name": "amount",
          "type": "uint256"
        }
      ],
      "name": "PaymentReceived",
      "type": "event"
    },
    {
      "inputs": [],
      "name": "owner",
      "outputs": [
        {
          "internalType": "address",
          "name": "",
          "type": "address"
        }
      ],
      "stateMutability": "view",
      "type": "function",
      "constant": true
    },
    {
      "inputs": [
        {
          "internalType": "address payable",
          "name": "creator",
          "type": "address"
        }
      ],
      "name": "payCreator",
      "outputs": [],
      "stateMutability": "payable",
      "type": "function",
      "payable": true
    }
  ],
  "bytecode": "0x608060405234801561001057600080fd5b50336000806101000a81548173ffffffffffffffffffffffffffffffffffffffff021916908373ffffffffffffffffffffffffffffffffffffffff160217905550610360806100606000396000f3fe6080604052600436106100295760003560e01c80638da5cb5b1461002e578063ecb0ae8e14610059575b600080fd5b34801561003a57600080fd5b50610043610075565b604051610050919061020c565b60405180910390f35b610073600480360381019061006e9190610176565b610099565b005b60008054906101000a900473ffffffffffffffffffffffffffffffffffffffff1681565b600034116100dc576040517f08c379a00000000000000000000000000000000000000000000000000000000081526004016100d39061025e565b60405180910390fd5b8073ffffffffffffffffffffffffffffffffffffffff166108fc349081150290604051600060405180830381858888f19350505050158015610122573d6000803e3d6000fd5b507f45fdc265dc29885b9a485766b03e70978440d38c7c328ee0a14fa40c76c6af5433823460405161015693929190610227565b60405180910390a150565b60008135905061017081610313565b92915050565b60006020828403121561018857600080fd5b600061019684828501610161565b91505092915050565b6101a8816102dd565b82525050565b6101b78161028f565b82525050565b60006101ca60208361027e565b91507f416d6f756e74206d7573742062652067726561746572207468616e207a65726f6000830152602082019050919050565b610206816102d3565b82525050565b600060208201905061022160008301846101ae565b92915050565b600060608201905061023c60008301866101ae565b610249602083018561019f565b61025660408301846101fd565b949350505050565b60006020820190508181036000830152610277816101bd565b9050919050565b600082825260208201905092915050565b600061029a826102b3565b9050919050565b60006102ac826102b3565b9050919050565b600073ffffffffffffffffffffffffffffffffffffffff82169050919050565b6000819050919050565b60006102e8826102ef565b9050919050565b60006102fa82610301565b9050919050565b600061030c826102b3565b9050919050565b61031c816102a1565b811461032757600080fd5b5056fea264697066735822122054cd86d403f5ab481572740b4acea3488f5cfbcf910c616bb29e1f963e96b3fe64736f6c63430008000033",
  "immutableReferences": {},
  "source": "// SPDX-License-Identifier: MIT\npragma solidity ^0.8.0;\n\ncontract Microtransactions {\n    address public owner;\n\n    event PaymentReceived(address from, address to, uint256 amount);\n\n    constructor() {\n        owner = msg.sender;\n    }\n\n    function payCreator(address payable creator) public payable {\n        require(msg.value > 0, \"Amount must be greater than zero\");\n        creator.transfer(msg.value);\n        emit PaymentReceived(msg.sender, creator, msg.value);\n    }\n}\n",
  "sourcePath": "E:\\9808 BCT\\MicrotransactionsApp\\contracts\\Microtransactions.sol",
  "compiler": {
    "name": "solc",
    "version": "0.8.0+commit.c7dfd78e.Emscripten.clang"
  },
  "schemaVersion": "3.4.16",
  "updatedAt": "2024-11-02T14:26:29.677Z",
  "networkType": "ethereum",
  "devdoc": {
    "kind": "dev",
    "methods": {},
    "version": 1
  },
  "userdoc": {
    "kind": "user",
    "methods": {},
    "version": 1
  }
}